{
  "_format": "hh-sol-artifact-1",
  "contractName": "IVIRSE",
  "sourceName": "src/solidity/contracts/IVIRSE.sol",
  "abi": [
    {
      "inputs": [],
      "stateMutability": "nonpayable",
      "type": "constructor"
    },
    {
      "anonymous": false,
      "inputs": [
        {
          "indexed": true,
          "internalType": "address",
          "name": "owner",
          "type": "address"
        },
        {
          "indexed": true,
          "internalType": "address",
          "name": "spender",
          "type": "address"
        },
        {
          "indexed": false,
          "internalType": "uint256",
          "name": "value",
          "type": "uint256"
        }
      ],
      "name": "Approval",
      "type": "event"
    },
    {
      "anonymous": false,
      "inputs": [
        {
          "indexed": true,
          "internalType": "address",
          "name": "_minterAddr",
          "type": "address"
        }
      ],
      "name": "MinterAdded",
      "type": "event"
    },
    {
      "anonymous": false,
      "inputs": [
        {
          "indexed": true,
          "internalType": "address",
          "name": "_minterAddr",
          "type": "address"
        }
      ],
      "name": "MinterRemoved",
      "type": "event"
    },
    {
      "anonymous": false,
      "inputs": [
        {
          "indexed": true,
          "internalType": "address",
          "name": "previousOwner",
          "type": "address"
        },
        {
          "indexed": true,
          "internalType": "address",
          "name": "newOwner",
          "type": "address"
        }
      ],
      "name": "OwnershipTransferred",
      "type": "event"
    },
    {
      "anonymous": false,
      "inputs": [
        {
          "indexed": true,
          "internalType": "address",
          "name": "from",
          "type": "address"
        },
        {
          "indexed": true,
          "internalType": "address",
          "name": "to",
          "type": "address"
        },
        {
          "indexed": false,
          "internalType": "uint256",
          "name": "value",
          "type": "uint256"
        }
      ],
      "name": "Transfer",
      "type": "event"
    },
    {
      "inputs": [
        {
          "internalType": "address",
          "name": "_minterAddr",
          "type": "address"
        }
      ],
      "name": "addMinter",
      "outputs": [],
      "stateMutability": "nonpayable",
      "type": "function"
    },
    {
      "inputs": [
        {
          "internalType": "address",
          "name": "owner",
          "type": "address"
        },
        {
          "internalType": "address",
          "name": "spender",
          "type": "address"
        }
      ],
      "name": "allowance",
      "outputs": [
        {
          "internalType": "uint256",
          "name": "",
          "type": "uint256"
        }
      ],
      "stateMutability": "view",
      "type": "function"
    },
    {
      "inputs": [
        {
          "internalType": "address",
          "name": "spender",
          "type": "address"
        },
        {
          "internalType": "uint256",
          "name": "amount",
          "type": "uint256"
        }
      ],
      "name": "approve",
      "outputs": [
        {
          "internalType": "bool",
          "name": "",
          "type": "bool"
        }
      ],
      "stateMutability": "nonpayable",
      "type": "function"
    },
    {
      "inputs": [
        {
          "internalType": "address[]",
          "name": "_listAcc",
          "type": "address[]"
        },
        {
          "internalType": "uint256[]",
          "name": "_listAmount",
          "type": "uint256[]"
        }
      ],
      "name": "approveList",
      "outputs": [],
      "stateMutability": "nonpayable",
      "type": "function"
    },
    {
      "inputs": [
        {
          "internalType": "address",
          "name": "account",
          "type": "address"
        }
      ],
      "name": "balanceOf",
      "outputs": [
        {
          "internalType": "uint256",
          "name": "",
          "type": "uint256"
        }
      ],
      "stateMutability": "view",
      "type": "function"
    },
    {
      "inputs": [
        {
          "internalType": "uint256",
          "name": "amount",
          "type": "uint256"
        }
      ],
      "name": "burn",
      "outputs": [],
      "stateMutability": "nonpayable",
      "type": "function"
    },
    {
      "inputs": [],
      "name": "checkTimeLock",
      "outputs": [
        {
          "internalType": "bool",
          "name": "",
          "type": "bool"
        }
      ],
      "stateMutability": "view",
      "type": "function"
    },
    {
      "inputs": [],
      "name": "decimals",
      "outputs": [
        {
          "internalType": "uint8",
          "name": "",
          "type": "uint8"
        }
      ],
      "stateMutability": "view",
      "type": "function"
    },
    {
      "inputs": [
        {
          "internalType": "address",
          "name": "spender",
          "type": "address"
        },
        {
          "internalType": "uint256",
          "name": "subtractedValue",
          "type": "uint256"
        }
      ],
      "name": "decreaseAllowance",
      "outputs": [
        {
          "internalType": "bool",
          "name": "",
          "type": "bool"
        }
      ],
      "stateMutability": "nonpayable",
      "type": "function"
    },
    {
      "inputs": [],
      "name": "getMinters",
      "outputs": [
        {
          "internalType": "address[]",
          "name": "",
          "type": "address[]"
        }
      ],
      "stateMutability": "view",
      "type": "function"
    },
    {
      "inputs": [
        {
          "internalType": "address",
          "name": "spender",
          "type": "address"
        },
        {
          "internalType": "uint256",
          "name": "addedValue",
          "type": "uint256"
        }
      ],
      "name": "increaseAllowance",
      "outputs": [
        {
          "internalType": "bool",
          "name": "",
          "type": "bool"
        }
      ],
      "stateMutability": "nonpayable",
      "type": "function"
    },
    {
      "inputs": [],
      "name": "maxSupply",
      "outputs": [
        {
          "internalType": "uint256",
          "name": "",
          "type": "uint256"
        }
      ],
      "stateMutability": "view",
      "type": "function"
    },
    {
      "inputs": [
        {
          "internalType": "address",
          "name": "account",
          "type": "address"
        },
        {
          "internalType": "uint256",
          "name": "amount",
          "type": "uint256"
        }
      ],
      "name": "mint",
      "outputs": [],
      "stateMutability": "nonpayable",
      "type": "function"
    },
    {
      "inputs": [
        {
          "internalType": "address",
          "name": "account",
          "type": "address"
        },
        {
          "internalType": "uint256",
          "name": "amount",
          "type": "uint256"
        }
      ],
      "name": "mintConsensus",
      "outputs": [],
      "stateMutability": "nonpayable",
      "type": "function"
    },
    {
      "inputs": [
        {
          "internalType": "address",
          "name": "",
          "type": "address"
        }
      ],
      "name": "minter",
      "outputs": [
        {
          "internalType": "bool",
          "name": "",
          "type": "bool"
        }
      ],
      "stateMutability": "view",
      "type": "function"
    },
    {
      "inputs": [],
      "name": "minterConsensus",
      "outputs": [],
      "stateMutability": "nonpayable",
      "type": "function"
    },
    {
      "inputs": [
        {
          "internalType": "address",
          "name": "",
          "type": "address"
        }
      ],
      "name": "minterConsent",
      "outputs": [
        {
          "internalType": "bool",
          "name": "",
          "type": "bool"
        }
      ],
      "stateMutability": "view",
      "type": "function"
    },
    {
      "inputs": [],
      "name": "minterReject",
      "outputs": [],
      "stateMutability": "nonpayable",
      "type": "function"
    },
    {
      "inputs": [],
      "name": "name",
      "outputs": [
        {
          "internalType": "string",
          "name": "",
          "type": "string"
        }
      ],
      "stateMutability": "view",
      "type": "function"
    },
    {
      "inputs": [],
      "name": "owner",
      "outputs": [
        {
          "internalType": "address",
          "name": "",
          "type": "address"
        }
      ],
      "stateMutability": "view",
      "type": "function"
    },
    {
      "inputs": [
        {
          "internalType": "address",
          "name": "ng_nhan",
          "type": "address"
        },
        {
          "internalType": "uint256",
          "name": "amounts",
          "type": "uint256"
        },
        {
          "internalType": "uint256",
          "name": "lockTimes",
          "type": "uint256"
        }
      ],
      "name": "payIn",
      "outputs": [],
      "stateMutability": "nonpayable",
      "type": "function"
    },
    {
      "inputs": [],
      "name": "payOut",
      "outputs": [],
      "stateMutability": "nonpayable",
      "type": "function"
    },
    {
      "inputs": [
        {
          "internalType": "address",
          "name": "_minterAddr",
          "type": "address"
        }
      ],
      "name": "removeMinter",
      "outputs": [],
      "stateMutability": "nonpayable",
      "type": "function"
    },
    {
      "inputs": [],
      "name": "renounceOwnership",
      "outputs": [],
      "stateMutability": "nonpayable",
      "type": "function"
    },
    {
      "inputs": [],
      "name": "symbol",
      "outputs": [
        {
          "internalType": "string",
          "name": "",
          "type": "string"
        }
      ],
      "stateMutability": "view",
      "type": "function"
    },
    {
      "inputs": [],
      "name": "totalSupply",
      "outputs": [
        {
          "internalType": "uint256",
          "name": "",
          "type": "uint256"
        }
      ],
      "stateMutability": "view",
      "type": "function"
    },
    {
      "inputs": [
        {
          "internalType": "address",
          "name": "to",
          "type": "address"
        },
        {
          "internalType": "uint256",
          "name": "amount",
          "type": "uint256"
        }
      ],
      "name": "transfer",
      "outputs": [
        {
          "internalType": "bool",
          "name": "",
          "type": "bool"
        }
      ],
      "stateMutability": "nonpayable",
      "type": "function"
    },
    {
      "inputs": [
        {
          "internalType": "address",
          "name": "from",
          "type": "address"
        },
        {
          "internalType": "address",
          "name": "to",
          "type": "address"
        },
        {
          "internalType": "uint256",
          "name": "amount",
          "type": "uint256"
        }
      ],
      "name": "transferFrom",
      "outputs": [
        {
          "internalType": "bool",
          "name": "",
          "type": "bool"
        }
      ],
      "stateMutability": "nonpayable",
      "type": "function"
    },
    {
      "inputs": [
        {
          "internalType": "address[]",
          "name": "_listAcc",
          "type": "address[]"
        },
        {
          "internalType": "uint256[]",
          "name": "_listAmount",
          "type": "uint256[]"
        }
      ],
      "name": "transferList",
      "outputs": [],
      "stateMutability": "nonpayable",
      "type": "function"
    },
    {
      "inputs": [
        {
          "internalType": "address",
          "name": "newOwner",
          "type": "address"
        }
      ],
      "name": "transferOwnership",
      "outputs": [],
      "stateMutability": "nonpayable",
      "type": "function"
    }
  ],
  "bytecode": "0x60806040523480156200001157600080fd5b506040518060400160405280600a81526020017f495649525345436f696e000000000000000000000000000000000000000000008152506040518060400160405280600381526020017f494849000000000000000000000000000000000000000000000000000000000081525081600390805190602001906200009692919062000495565b508060049080519060200190620000af92919062000495565b505050620000d2620000c66200012560201b60201c565b6200012d60201b60201c565b60006012600a620000e4919062000643565b9050806334fb5e38620000f8919062000780565b6006819055506200011e620001126200012560201b60201c565b620001f360201b60201c565b50620008de565b600033905090565b6000600560009054906101000a900473ffffffffffffffffffffffffffffffffffffffff16905081600560006101000a81548173ffffffffffffffffffffffffffffffffffffffff021916908373ffffffffffffffffffffffffffffffffffffffff1602179055508173ffffffffffffffffffffffffffffffffffffffff168173ffffffffffffffffffffffffffffffffffffffff167f8be0079c531659141344cd1fd0a4f28419497f9722a3daafe3b4186f6b6457e060405160405180910390a35050565b620002036200012560201b60201c565b73ffffffffffffffffffffffffffffffffffffffff16620002296200046b60201b60201c565b73ffffffffffffffffffffffffffffffffffffffff161462000282576040517f08c379a00000000000000000000000000000000000000000000000000000000081526004016200027990620005b5565b60405180910390fd5b600860008273ffffffffffffffffffffffffffffffffffffffff1673ffffffffffffffffffffffffffffffffffffffff16815260200190815260200160002060009054906101000a900460ff161562000312576040517f08c379a0000000000000000000000000000000000000000000000000000000008152600401620003099062000593565b60405180910390fd5b600a819080600181540180825580915050600190039060005260206000200160009091909190916101000a81548173ffffffffffffffffffffffffffffffffffffffff021916908373ffffffffffffffffffffffffffffffffffffffff1602179055506001600860008373ffffffffffffffffffffffffffffffffffffffff1673ffffffffffffffffffffffffffffffffffffffff16815260200190815260200160002060006101000a81548160ff0219169083151502179055506000600960008373ffffffffffffffffffffffffffffffffffffffff1673ffffffffffffffffffffffffffffffffffffffff16815260200190815260200160002060006101000a81548160ff0219169083151502179055508073ffffffffffffffffffffffffffffffffffffffff167f6ae172837ea30b801fbfcdd4108aa1d5bf8ff775444fd70256b44e6bf3dfc3f660405160405180910390a250565b6000600560009054906101000a900473ffffffffffffffffffffffffffffffffffffffff16905090565b828054620004a390620007eb565b90600052602060002090601f016020900481019282620004c7576000855562000513565b82601f10620004e257805160ff191683800117855562000513565b8280016001018555821562000513579182015b8281111562000512578251825591602001919060010190620004f5565b5b50905062000522919062000526565b5090565b5b808211156200054157600081600090555060010162000527565b5090565b600062000554600983620005d7565b915062000561826200088c565b602082019050919050565b60006200057b602083620005d7565b91506200058882620008b5565b602082019050919050565b60006020820190508181036000830152620005ae8162000545565b9050919050565b60006020820190508181036000830152620005d0816200056c565b9050919050565b600082825260208201905092915050565b6000808291508390505b60018511156200063a5780860481111562000612576200061162000821565b5b6001851615620006225780820291505b808102905062000632856200087f565b9450620005f2565b94509492505050565b60006200065082620007e1565b91506200065d83620007e1565b92506200068c7fffffffffffffffffffffffffffffffffffffffffffffffffffffffffffffffff848462000694565b905092915050565b600082620006a6576001905062000779565b81620006b6576000905062000779565b8160018114620006cf5760028114620006da5762000710565b600191505062000779565b60ff841115620006ef57620006ee62000821565b5b8360020a91508482111562000709576200070862000821565b5b5062000779565b5060208310610133831016604e8410600b84101617156200074a5782820a90508381111562000744576200074362000821565b5b62000779565b620007598484846001620005e8565b9250905081840481111562000773576200077262000821565b5b81810290505b9392505050565b60006200078d82620007e1565b91506200079a83620007e1565b9250817fffffffffffffffffffffffffffffffffffffffffffffffffffffffffffffffff0483118215151615620007d657620007d562000821565b5b828202905092915050565b6000819050919050565b600060028204905060018216806200080457607f821691505b602082108114156200081b576200081a62000850565b5b50919050565b7f4e487b7100000000000000000000000000000000000000000000000000000000600052601160045260246000fd5b7f4e487b7100000000000000000000000000000000000000000000000000000000600052602260045260246000fd5b60008160011c9050919050565b7f4973206d696e7465720000000000000000000000000000000000000000000000600082015250565b7f4f776e61626c653a2063616c6c6572206973206e6f7420746865206f776e6572600082015250565b613a3f80620008ee6000396000f3fe608060405234801561001057600080fd5b50600436106101da5760003560e01c8063715018a611610104578063a5c8ebdd116100a2578063dd62ed3e11610071578063dd62ed3e14610543578063f1f03e3c14610573578063f2fde38b1461057d578063f50435ee14610599576101da565b8063a5c8ebdd146104bb578063a9059cbb146104eb578063c20524031461051b578063d5abeb0114610525576101da565b80638da5cb5b116100de5780638da5cb5b1461043357806395d89b4114610451578063983b2d561461046f578063a457c2d71461048b576101da565b8063715018a6146103f1578063806ca622146103fb578063859bc2f314610417576101da565b8063323ce5211161017c57806340c10f191161014b57806340c10f191461036b57806342966c68146103875780636b32810b146103a357806370a08231146103c1576101da565b8063323ce521146102d157806339509351146102ef5780633cd818421461031f5780633dd08c381461033b576101da565b806318160ddd116101b857806318160ddd1461024957806323b872dd146102675780633092afd514610297578063313ce567146102b3576101da565b806302eb07a5146101df57806306fdde03146101fb578063095ea7b314610219575b600080fd5b6101f960048036038101906101f491906129a1565b6105a3565b005b610203610700565b6040516102109190612eb6565b60405180910390f35b610233600480360381019061022e9190612965565b610792565b6040516102409190612e9b565b60405180910390f35b6102516107b5565b60405161025e9190613178565b60405180910390f35b610281600480360381019061027c9190612916565b6107bf565b60405161028e9190612e9b565b60405180910390f35b6102b160048036038101906102ac91906128b1565b6107ee565b005b6102bb610cad565b6040516102c89190613193565b60405180910390f35b6102d9610cb6565b6040516102e69190612e9b565b60405180910390f35b61030960048036038101906103049190612965565b610d13565b6040516103169190612e9b565b60405180910390f35b610339600480360381019061033491906129f0565b610dbd565b005b610355600480360381019061035091906128b1565b610eb0565b6040516103629190612e9b565b60405180910390f35b61038560048036038101906103809190612965565b610ed0565b005b6103a1600480360381019061039c9190612a5c565b610fba565b005b6103ab610fce565b6040516103b89190612e79565b60405180910390f35b6103db60048036038101906103d691906128b1565b61105c565b6040516103e89190613178565b60405180910390f35b6103f96110a4565b005b61041560048036038101906104109190612965565b61112c565b005b610431600480360381019061042c91906129f0565b611428565b005b61043b61151b565b6040516104489190612e5e565b60405180910390f35b610459611545565b6040516104669190612eb6565b60405180910390f35b610489600480360381019061048491906128b1565b6115d7565b005b6104a560048036038101906104a09190612965565b611839565b6040516104b29190612e9b565b60405180910390f35b6104d560048036038101906104d091906128b1565b611923565b6040516104e29190612e9b565b60405180910390f35b61050560048036038101906105009190612965565b611943565b6040516105129190612e9b565b60405180910390f35b610523611966565b005b61052d611b11565b60405161053a9190613178565b60405180910390f35b61055d600480360381019061055891906128da565b611b1b565b60405161056a9190613178565b60405180910390f35b61057b611ba2565b005b610597600480360381019061059291906128b1565b611c8f565b005b6105a1611d87565b005b6105ab611e74565b73ffffffffffffffffffffffffffffffffffffffff166105c961151b565b73ffffffffffffffffffffffffffffffffffffffff161461061f576040517f08c379a000000000000000000000000000000000000000000000000000000000815260040161061690613038565b60405180910390fd5b60008211610662576040517f08c379a000000000000000000000000000000000000000000000000000000000815260040161065990613138565b60405180910390fd5b81600b60008573ffffffffffffffffffffffffffffffffffffffff1673ffffffffffffffffffffffffffffffffffffffff1681526020019081526020016000206000018190555080426106b59190613280565b600b60008573ffffffffffffffffffffffffffffffffffffffff1673ffffffffffffffffffffffffffffffffffffffff16815260200190815260200160002060010181905550505050565b60606003805461070f90613392565b80601f016020809104026020016040519081016040528092919081815260200182805461073b90613392565b80156107885780601f1061075d57610100808354040283529160200191610788565b820191906000526020600020905b81548152906001019060200180831161076b57829003601f168201915b5050505050905090565b60008061079d611e74565b90506107aa818585611e7c565b600191505092915050565b6000600254905090565b6000806107ca611e74565b90506107d7858285612047565b6107e28585856120d3565b60019150509392505050565b6107f6611e74565b73ffffffffffffffffffffffffffffffffffffffff1661081461151b565b73ffffffffffffffffffffffffffffffffffffffff161461086a576040517f08c379a000000000000000000000000000000000000000000000000000000000815260040161086190613038565b60405180910390fd5b600860008273ffffffffffffffffffffffffffffffffffffffff1673ffffffffffffffffffffffffffffffffffffffff16815260200190815260200160002060009054906101000a900460ff166108f6576040517f08c379a00000000000000000000000000000000000000000000000000000000081526004016108ed90612ff8565b60405180910390fd5b6000600860008373ffffffffffffffffffffffffffffffffffffffff1673ffffffffffffffffffffffffffffffffffffffff16815260200190815260200160002060006101000a81548160ff0219169083151502179055506001600960008373ffffffffffffffffffffffffffffffffffffffff1673ffffffffffffffffffffffffffffffffffffffff16815260200190815260200160002060006101000a81548160ff0219169083151502179055508073ffffffffffffffffffffffffffffffffffffffff167fe94479a9f7e1952cc78f2d6baab678adc1b772d936c6583def489e524cb6669260405160405180910390a26000805b600a80549050821015610ca857600a8281548110610a34577f4e487b7100000000000000000000000000000000000000000000000000000000600052603260045260246000fd5b9060005260206000200160009054906101000a900473ffffffffffffffffffffffffffffffffffffffff169050600860008273ffffffffffffffffffffffffffffffffffffffff1673ffffffffffffffffffffffffffffffffffffffff16815260200190815260200160002060009054906101000a900460ff16610c9457600a6001600a80549050610ac691906132d6565b81548110610afd577f4e487b7100000000000000000000000000000000000000000000000000000000600052603260045260246000fd5b9060005260206000200160009054906101000a900473ffffffffffffffffffffffffffffffffffffffff16600a8381548110610b62577f4e487b7100000000000000000000000000000000000000000000000000000000600052603260045260246000fd5b9060005260206000200160006101000a81548173ffffffffffffffffffffffffffffffffffffffff021916908373ffffffffffffffffffffffffffffffffffffffff160217905550600a6001600a80549050610bbe91906132d6565b81548110610bf5577f4e487b7100000000000000000000000000000000000000000000000000000000600052603260045260246000fd5b9060005260206000200160006101000a81549073ffffffffffffffffffffffffffffffffffffffff0219169055600a805480610c5a577f4e487b7100000000000000000000000000000000000000000000000000000000600052603160045260246000fd5b6001900381819060005260206000200160006101000a81549073ffffffffffffffffffffffffffffffffffffffff02191690559055610ca3565b8180610c9f906133f5565b9250505b6109ed565b505050565b60006012905090565b600042600b60003373ffffffffffffffffffffffffffffffffffffffff1673ffffffffffffffffffffffffffffffffffffffff168152602001908152602001600020600101541015610d0b5760019050610d10565b600090505b90565b600080610d1e611e74565b9050610db2818585600160008673ffffffffffffffffffffffffffffffffffffffff1673ffffffffffffffffffffffffffffffffffffffff16815260200190815260200160002060008973ffffffffffffffffffffffffffffffffffffffff1673ffffffffffffffffffffffffffffffffffffffff16815260200190815260200160002054610dad9190613280565b611e7c565b600191505092915050565b8051825114610e01576040517f08c379a0000000000000000000000000000000000000000000000000000000008152600401610df890612f18565b60405180910390fd5b60005b8251811015610eab57610e97838281518110610e49577f4e487b7100000000000000000000000000000000000000000000000000000000600052603260045260246000fd5b6020026020010151838381518110610e8a577f4e487b7100000000000000000000000000000000000000000000000000000000600052603260045260246000fd5b6020026020010151610792565b508080610ea3906133f5565b915050610e04565b505050565b60086020528060005260406000206000915054906101000a900460ff1681565b610ed8611e74565b73ffffffffffffffffffffffffffffffffffffffff16610ef661151b565b73ffffffffffffffffffffffffffffffffffffffff1614610f4c576040517f08c379a0000000000000000000000000000000000000000000000000000000008152600401610f4390613038565b60405180910390fd5b610f546107b5565b60078190555060065481600754610f6b9190613280565b1115610fac576040517f08c379a0000000000000000000000000000000000000000000000000000000008152600401610fa390613018565b60405180910390fd5b610fb68282612354565b5050565b610fcb610fc5611e74565b826124b4565b50565b6060600a80548060200260200160405190810160405280929190818152602001828054801561105257602002820191906000526020600020905b8160009054906101000a900473ffffffffffffffffffffffffffffffffffffffff1673ffffffffffffffffffffffffffffffffffffffff1681526020019060010190808311611008575b5050505050905090565b60008060008373ffffffffffffffffffffffffffffffffffffffff1673ffffffffffffffffffffffffffffffffffffffff168152602001908152602001600020549050919050565b6110ac611e74565b73ffffffffffffffffffffffffffffffffffffffff166110ca61151b565b73ffffffffffffffffffffffffffffffffffffffff1614611120576040517f08c379a000000000000000000000000000000000000000000000000000000000815260040161111790613038565b60405180910390fd5b61112a600061268b565b565b600860003373ffffffffffffffffffffffffffffffffffffffff1673ffffffffffffffffffffffffffffffffffffffff16815260200190815260200160002060009054906101000a900460ff166111b8576040517f08c379a00000000000000000000000000000000000000000000000000000000081526004016111af90612fb8565b60405180910390fd5b6111c06107b5565b600781905550600654816007546111d79190613280565b1115611218576040517f08c379a000000000000000000000000000000000000000000000000000000000815260040161120f90613018565b60405180910390fd5b6000806000600a805490509050600092505b8083101561133857600a838154811061126c577f4e487b7100000000000000000000000000000000000000000000000000000000600052603260045260246000fd5b9060005260206000200160009054906101000a900473ffffffffffffffffffffffffffffffffffffffff169150600960008373ffffffffffffffffffffffffffffffffffffffff1673ffffffffffffffffffffffffffffffffffffffff16815260200190815260200160002060009054906101000a900460ff16611325576040517f08c379a000000000000000000000000000000000000000000000000000000000815260040161131c90613098565b60405180910390fd5b8280611330906133f5565b93505061122a565b6113428585612354565b600092505b8083101561142157600a8381548110611389577f4e487b7100000000000000000000000000000000000000000000000000000000600052603260045260246000fd5b9060005260206000200160009054906101000a900473ffffffffffffffffffffffffffffffffffffffff1691506000600960008473ffffffffffffffffffffffffffffffffffffffff1673ffffffffffffffffffffffffffffffffffffffff16815260200190815260200160002060006101000a81548160ff0219169083151502179055508280611419906133f5565b935050611347565b5050505050565b805182511461146c576040517f08c379a000000000000000000000000000000000000000000000000000000000815260040161146390612f18565b60405180910390fd5b60005b8251811015611516576115028382815181106114b4577f4e487b7100000000000000000000000000000000000000000000000000000000600052603260045260246000fd5b60200260200101518383815181106114f5577f4e487b7100000000000000000000000000000000000000000000000000000000600052603260045260246000fd5b6020026020010151611943565b50808061150e906133f5565b91505061146f565b505050565b6000600560009054906101000a900473ffffffffffffffffffffffffffffffffffffffff16905090565b60606004805461155490613392565b80601f016020809104026020016040519081016040528092919081815260200182805461158090613392565b80156115cd5780601f106115a2576101008083540402835291602001916115cd565b820191906000526020600020905b8154815290600101906020018083116115b057829003601f168201915b5050505050905090565b6115df611e74565b73ffffffffffffffffffffffffffffffffffffffff166115fd61151b565b73ffffffffffffffffffffffffffffffffffffffff1614611653576040517f08c379a000000000000000000000000000000000000000000000000000000000815260040161164a90613038565b60405180910390fd5b600860008273ffffffffffffffffffffffffffffffffffffffff1673ffffffffffffffffffffffffffffffffffffffff16815260200190815260200160002060009054906101000a900460ff16156116e0576040517f08c379a00000000000000000000000000000000000000000000000000000000081526004016116d790612fd8565b60405180910390fd5b600a819080600181540180825580915050600190039060005260206000200160009091909190916101000a81548173ffffffffffffffffffffffffffffffffffffffff021916908373ffffffffffffffffffffffffffffffffffffffff1602179055506001600860008373ffffffffffffffffffffffffffffffffffffffff1673ffffffffffffffffffffffffffffffffffffffff16815260200190815260200160002060006101000a81548160ff0219169083151502179055506000600960008373ffffffffffffffffffffffffffffffffffffffff1673ffffffffffffffffffffffffffffffffffffffff16815260200190815260200160002060006101000a81548160ff0219169083151502179055508073ffffffffffffffffffffffffffffffffffffffff167f6ae172837ea30b801fbfcdd4108aa1d5bf8ff775444fd70256b44e6bf3dfc3f660405160405180910390a250565b600080611844611e74565b90506000600160008373ffffffffffffffffffffffffffffffffffffffff1673ffffffffffffffffffffffffffffffffffffffff16815260200190815260200160002060008673ffffffffffffffffffffffffffffffffffffffff1673ffffffffffffffffffffffffffffffffffffffff1681526020019081526020016000205490508381101561190a576040517f08c379a000000000000000000000000000000000000000000000000000000000815260040161190190613118565b60405180910390fd5b6119178286868403611e7c565b60019250505092915050565b60096020528060005260406000206000915054906101000a900460ff1681565b60008061194e611e74565b905061195b8185856120d3565b600191505092915050565b6000600b60003373ffffffffffffffffffffffffffffffffffffffff1673ffffffffffffffffffffffffffffffffffffffff1681526020019081526020016000206000015414156119ec576040517f08c379a00000000000000000000000000000000000000000000000000000000081526004016119e3906130f8565b60405180910390fd5b6119f4610cb6565b611a33576040517f08c379a0000000000000000000000000000000000000000000000000000000008152600401611a2a906130d8565b60405180910390fd5b611a7f33600b60003373ffffffffffffffffffffffffffffffffffffffff1673ffffffffffffffffffffffffffffffffffffffff16815260200190815260200160002060000154612354565b6000600b60003373ffffffffffffffffffffffffffffffffffffffff1673ffffffffffffffffffffffffffffffffffffffff168152602001908152602001600020600001819055506000600b60003373ffffffffffffffffffffffffffffffffffffffff1673ffffffffffffffffffffffffffffffffffffffff16815260200190815260200160002060010181905550565b6000600654905090565b6000600160008473ffffffffffffffffffffffffffffffffffffffff1673ffffffffffffffffffffffffffffffffffffffff16815260200190815260200160002060008373ffffffffffffffffffffffffffffffffffffffff1673ffffffffffffffffffffffffffffffffffffffff16815260200190815260200160002054905092915050565b600860003373ffffffffffffffffffffffffffffffffffffffff1673ffffffffffffffffffffffffffffffffffffffff16815260200190815260200160002060009054906101000a900460ff16611c2e576040517f08c379a0000000000000000000000000000000000000000000000000000000008152600401611c2590612fb8565b60405180910390fd5b600160096000611c3c611e74565b73ffffffffffffffffffffffffffffffffffffffff1673ffffffffffffffffffffffffffffffffffffffff16815260200190815260200160002060006101000a81548160ff021916908315150217905550565b611c97611e74565b73ffffffffffffffffffffffffffffffffffffffff16611cb561151b565b73ffffffffffffffffffffffffffffffffffffffff1614611d0b576040517f08c379a0000000000000000000000000000000000000000000000000000000008152600401611d0290613038565b60405180910390fd5b600073ffffffffffffffffffffffffffffffffffffffff168173ffffffffffffffffffffffffffffffffffffffff161415611d7b576040517f08c379a0000000000000000000000000000000000000000000000000000000008152600401611d7290612f38565b60405180910390fd5b611d848161268b565b50565b600860003373ffffffffffffffffffffffffffffffffffffffff1673ffffffffffffffffffffffffffffffffffffffff16815260200190815260200160002060009054906101000a900460ff16611e13576040517f08c379a0000000000000000000000000000000000000000000000000000000008152600401611e0a90612fb8565b60405180910390fd5b600060096000611e21611e74565b73ffffffffffffffffffffffffffffffffffffffff1673ffffffffffffffffffffffffffffffffffffffff16815260200190815260200160002060006101000a81548160ff021916908315150217905550565b600033905090565b600073ffffffffffffffffffffffffffffffffffffffff168373ffffffffffffffffffffffffffffffffffffffff161415611eec576040517f08c379a0000000000000000000000000000000000000000000000000000000008152600401611ee3906130b8565b60405180910390fd5b600073ffffffffffffffffffffffffffffffffffffffff168273ffffffffffffffffffffffffffffffffffffffff161415611f5c576040517f08c379a0000000000000000000000000000000000000000000000000000000008152600401611f5390612f58565b60405180910390fd5b80600160008573ffffffffffffffffffffffffffffffffffffffff1673ffffffffffffffffffffffffffffffffffffffff16815260200190815260200160002060008473ffffffffffffffffffffffffffffffffffffffff1673ffffffffffffffffffffffffffffffffffffffff168152602001908152602001600020819055508173ffffffffffffffffffffffffffffffffffffffff168373ffffffffffffffffffffffffffffffffffffffff167f8c5be1e5ebec7d5bd14f71427d1e84f3dd0314c0f7b2291e5b200ac8c7c3b9258360405161203a9190613178565b60405180910390a3505050565b60006120538484611b1b565b90507fffffffffffffffffffffffffffffffffffffffffffffffffffffffffffffffff81146120cd57818110156120bf576040517f08c379a00000000000000000000000000000000000000000000000000000000081526004016120b690612f78565b60405180910390fd5b6120cc8484848403611e7c565b5b50505050565b600073ffffffffffffffffffffffffffffffffffffffff168373ffffffffffffffffffffffffffffffffffffffff161415612143576040517f08c379a000000000000000000000000000000000000000000000000000000000815260040161213a90613078565b60405180910390fd5b600073ffffffffffffffffffffffffffffffffffffffff168273ffffffffffffffffffffffffffffffffffffffff1614156121b3576040517f08c379a00000000000000000000000000000000000000000000000000000000081526004016121aa90612ed8565b60405180910390fd5b6121be838383612751565b60008060008573ffffffffffffffffffffffffffffffffffffffff1673ffffffffffffffffffffffffffffffffffffffff16815260200190815260200160002054905081811015612244576040517f08c379a000000000000000000000000000000000000000000000000000000000815260040161223b90612f98565b60405180910390fd5b8181036000808673ffffffffffffffffffffffffffffffffffffffff1673ffffffffffffffffffffffffffffffffffffffff16815260200190815260200160002081905550816000808573ffffffffffffffffffffffffffffffffffffffff1673ffffffffffffffffffffffffffffffffffffffff16815260200190815260200160002060008282546122d79190613280565b925050819055508273ffffffffffffffffffffffffffffffffffffffff168473ffffffffffffffffffffffffffffffffffffffff167fddf252ad1be2c89b69c2b068fc378daa952ba7f163c4a11628f55a4df523b3ef8460405161233b9190613178565b60405180910390a361234e848484612756565b50505050565b600073ffffffffffffffffffffffffffffffffffffffff168273ffffffffffffffffffffffffffffffffffffffff1614156123c4576040517f08c379a00000000000000000000000000000000000000000000000000000000081526004016123bb90613158565b60405180910390fd5b6123d060008383612751565b80600260008282546123e29190613280565b92505081905550806000808473ffffffffffffffffffffffffffffffffffffffff1673ffffffffffffffffffffffffffffffffffffffff16815260200190815260200160002060008282546124379190613280565b925050819055508173ffffffffffffffffffffffffffffffffffffffff16600073ffffffffffffffffffffffffffffffffffffffff167fddf252ad1be2c89b69c2b068fc378daa952ba7f163c4a11628f55a4df523b3ef8360405161249c9190613178565b60405180910390a36124b060008383612756565b5050565b600073ffffffffffffffffffffffffffffffffffffffff168273ffffffffffffffffffffffffffffffffffffffff161415612524576040517f08c379a000000000000000000000000000000000000000000000000000000000815260040161251b90613058565b60405180910390fd5b61253082600083612751565b60008060008473ffffffffffffffffffffffffffffffffffffffff1673ffffffffffffffffffffffffffffffffffffffff168152602001908152602001600020549050818110156125b6576040517f08c379a00000000000000000000000000000000000000000000000000000000081526004016125ad90612ef8565b60405180910390fd5b8181036000808573ffffffffffffffffffffffffffffffffffffffff1673ffffffffffffffffffffffffffffffffffffffff16815260200190815260200160002081905550816002600082825461260d91906132d6565b92505081905550600073ffffffffffffffffffffffffffffffffffffffff168373ffffffffffffffffffffffffffffffffffffffff167fddf252ad1be2c89b69c2b068fc378daa952ba7f163c4a11628f55a4df523b3ef846040516126729190613178565b60405180910390a361268683600084612756565b505050565b6000600560009054906101000a900473ffffffffffffffffffffffffffffffffffffffff16905081600560006101000a81548173ffffffffffffffffffffffffffffffffffffffff021916908373ffffffffffffffffffffffffffffffffffffffff1602179055508173ffffffffffffffffffffffffffffffffffffffff168173ffffffffffffffffffffffffffffffffffffffff167f8be0079c531659141344cd1fd0a4f28419497f9722a3daafe3b4186f6b6457e060405160405180910390a35050565b505050565b505050565b600061276e612769846131d3565b6131ae565b9050808382526020820190508285602086028201111561278d57600080fd5b60005b858110156127bd57816127a38882612833565b845260208401935060208301925050600181019050612790565b5050509392505050565b60006127da6127d5846131ff565b6131ae565b905080838252602082019050828560208602820111156127f957600080fd5b60005b85811015612829578161280f888261289c565b8452602084019350602083019250506001810190506127fc565b5050509392505050565b600081359050612842816139db565b92915050565b600082601f83011261285957600080fd5b813561286984826020860161275b565b91505092915050565b600082601f83011261288357600080fd5b81356128938482602086016127c7565b91505092915050565b6000813590506128ab816139f2565b92915050565b6000602082840312156128c357600080fd5b60006128d184828501612833565b91505092915050565b600080604083850312156128ed57600080fd5b60006128fb85828601612833565b925050602061290c85828601612833565b9150509250929050565b60008060006060848603121561292b57600080fd5b600061293986828701612833565b935050602061294a86828701612833565b925050604061295b8682870161289c565b9150509250925092565b6000806040838503121561297857600080fd5b600061298685828601612833565b92505060206129978582860161289c565b9150509250929050565b6000806000606084860312156129b657600080fd5b60006129c486828701612833565b93505060206129d58682870161289c565b92505060406129e68682870161289c565b9150509250925092565b60008060408385031215612a0357600080fd5b600083013567ffffffffffffffff811115612a1d57600080fd5b612a2985828601612848565b925050602083013567ffffffffffffffff811115612a4657600080fd5b612a5285828601612872565b9150509250929050565b600060208284031215612a6e57600080fd5b6000612a7c8482850161289c565b91505092915050565b6000612a918383612a9d565b60208301905092915050565b612aa68161330a565b82525050565b612ab58161330a565b82525050565b6000612ac68261323b565b612ad0818561325e565b9350612adb8361322b565b8060005b83811015612b0c578151612af38882612a85565b9750612afe83613251565b925050600181019050612adf565b5085935050505092915050565b612b228161331c565b82525050565b6000612b3382613246565b612b3d818561326f565b9350612b4d81856020860161335f565b612b56816134cb565b840191505092915050565b6000612b6e60238361326f565b9150612b79826134dc565b604082019050919050565b6000612b9160228361326f565b9150612b9c8261352b565b604082019050919050565b6000612bb460148361326f565b9150612bbf8261357a565b602082019050919050565b6000612bd760268361326f565b9150612be2826135a3565b604082019050919050565b6000612bfa60228361326f565b9150612c05826135f2565b604082019050919050565b6000612c1d601d8361326f565b9150612c2882613641565b602082019050919050565b6000612c4060268361326f565b9150612c4b8261366a565b604082019050919050565b6000612c63600b8361326f565b9150612c6e826136b9565b602082019050919050565b6000612c8660098361326f565b9150612c91826136e2565b602082019050919050565b6000612ca9600a8361326f565b9150612cb48261370b565b602082019050919050565b6000612ccc60258361326f565b9150612cd782613734565b604082019050919050565b6000612cef60208361326f565b9150612cfa82613783565b602082019050919050565b6000612d1260218361326f565b9150612d1d826137ac565b604082019050919050565b6000612d3560258361326f565b9150612d40826137fb565b604082019050919050565b6000612d5860248361326f565b9150612d638261384a565b604082019050919050565b6000612d7b60248361326f565b9150612d8682613899565b604082019050919050565b6000612d9e600c8361326f565b9150612da9826138e8565b602082019050919050565b6000612dc1600d8361326f565b9150612dcc82613911565b602082019050919050565b6000612de460258361326f565b9150612def8261393a565b604082019050919050565b6000612e07600b8361326f565b9150612e1282613989565b602082019050919050565b6000612e2a601f8361326f565b9150612e35826139b2565b602082019050919050565b612e4981613348565b82525050565b612e5881613352565b82525050565b6000602082019050612e736000830184612aac565b92915050565b60006020820190508181036000830152612e938184612abb565b905092915050565b6000602082019050612eb06000830184612b19565b92915050565b60006020820190508181036000830152612ed08184612b28565b905092915050565b60006020820190508181036000830152612ef181612b61565b9050919050565b60006020820190508181036000830152612f1181612b84565b9050919050565b60006020820190508181036000830152612f3181612ba7565b9050919050565b60006020820190508181036000830152612f5181612bca565b9050919050565b60006020820190508181036000830152612f7181612bed565b9050919050565b60006020820190508181036000830152612f9181612c10565b9050919050565b60006020820190508181036000830152612fb181612c33565b9050919050565b60006020820190508181036000830152612fd181612c56565b9050919050565b60006020820190508181036000830152612ff181612c79565b9050919050565b6000602082019050818103600083015261301181612c9c565b9050919050565b6000602082019050818103600083015261303181612cbf565b9050919050565b6000602082019050818103600083015261305181612ce2565b9050919050565b6000602082019050818103600083015261307181612d05565b9050919050565b6000602082019050818103600083015261309181612d28565b9050919050565b600060208201905081810360008301526130b181612d4b565b9050919050565b600060208201905081810360008301526130d181612d6e565b9050919050565b600060208201905081810360008301526130f181612d91565b9050919050565b6000602082019050818103600083015261311181612db4565b9050919050565b6000602082019050818103600083015261313181612dd7565b9050919050565b6000602082019050818103600083015261315181612dfa565b9050919050565b6000602082019050818103600083015261317181612e1d565b9050919050565b600060208201905061318d6000830184612e40565b92915050565b60006020820190506131a86000830184612e4f565b92915050565b60006131b86131c9565b90506131c482826133c4565b919050565b6000604051905090565b600067ffffffffffffffff8211156131ee576131ed61349c565b5b602082029050602081019050919050565b600067ffffffffffffffff82111561321a5761321961349c565b5b602082029050602081019050919050565b6000819050602082019050919050565b600081519050919050565b600081519050919050565b6000602082019050919050565b600082825260208201905092915050565b600082825260208201905092915050565b600061328b82613348565b915061329683613348565b9250827fffffffffffffffffffffffffffffffffffffffffffffffffffffffffffffffff038211156132cb576132ca61343e565b5b828201905092915050565b60006132e182613348565b91506132ec83613348565b9250828210156132ff576132fe61343e565b5b828203905092915050565b600061331582613328565b9050919050565b60008115159050919050565b600073ffffffffffffffffffffffffffffffffffffffff82169050919050565b6000819050919050565b600060ff82169050919050565b60005b8381101561337d578082015181840152602081019050613362565b8381111561338c576000848401525b50505050565b600060028204905060018216806133aa57607f821691505b602082108114156133be576133bd61346d565b5b50919050565b6133cd826134cb565b810181811067ffffffffffffffff821117156133ec576133eb61349c565b5b80604052505050565b600061340082613348565b91507fffffffffffffffffffffffffffffffffffffffffffffffffffffffffffffffff8214156134335761343261343e565b5b600182019050919050565b7f4e487b7100000000000000000000000000000000000000000000000000000000600052601160045260246000fd5b7f4e487b7100000000000000000000000000000000000000000000000000000000600052602260045260246000fd5b7f4e487b7100000000000000000000000000000000000000000000000000000000600052604160045260246000fd5b6000601f19601f8301169050919050565b7f45524332303a207472616e7366657220746f20746865207a65726f206164647260008201527f6573730000000000000000000000000000000000000000000000000000000000602082015250565b7f45524332303a206275726e20616d6f756e7420657863656564732062616c616e60008201527f6365000000000000000000000000000000000000000000000000000000000000602082015250565b7f6e6f7420656e6f75676820617267756d656e7473000000000000000000000000600082015250565b7f4f776e61626c653a206e6577206f776e657220697320746865207a65726f206160008201527f6464726573730000000000000000000000000000000000000000000000000000602082015250565b7f45524332303a20617070726f766520746f20746865207a65726f20616464726560008201527f7373000000000000000000000000000000000000000000000000000000000000602082015250565b7f45524332303a20696e73756666696369656e7420616c6c6f77616e6365000000600082015250565b7f45524332303a207472616e7366657220616d6f756e742065786365656473206260008201527f616c616e63650000000000000000000000000000000000000000000000000000602082015250565b7f4f6e6c792d6d696e746572000000000000000000000000000000000000000000600082015250565b7f4973206d696e7465720000000000000000000000000000000000000000000000600082015250565b7f4e6f74206d696e74657200000000000000000000000000000000000000000000600082015250565b7f45524332303a206d696e7420616d6f756e742065786365656473206d6178207360008201527f7570706c79000000000000000000000000000000000000000000000000000000602082015250565b7f4f776e61626c653a2063616c6c6572206973206e6f7420746865206f776e6572600082015250565b7f45524332303a206275726e2066726f6d20746865207a65726f2061646472657360008201527f7300000000000000000000000000000000000000000000000000000000000000602082015250565b7f45524332303a207472616e736665722066726f6d20746865207a65726f20616460008201527f6472657373000000000000000000000000000000000000000000000000000000602082015250565b7f4174206c65617374206f6e65206d696e74657220686173206e6f74206163636560008201527f7074656400000000000000000000000000000000000000000000000000000000602082015250565b7f45524332303a20617070726f76652066726f6d20746865207a65726f2061646460008201527f7265737300000000000000000000000000000000000000000000000000000000602082015250565b7f63616e277420756e6c6f636b0000000000000000000000000000000000000000600082015250565b7f63616e277420617070726f766500000000000000000000000000000000000000600082015250565b7f45524332303a2064656372656173656420616c6c6f77616e63652062656c6f7760008201527f207a65726f000000000000000000000000000000000000000000000000000000602082015250565b7f616d6f756e74203e203020000000000000000000000000000000000000000000600082015250565b7f45524332303a206d696e7420746f20746865207a65726f206164647265737300600082015250565b6139e48161330a565b81146139ef57600080fd5b50565b6139fb81613348565b8114613a0657600080fd5b5056fea264697066735822122034c59bbcb909d7eb72784c21f65c84dc10ba8eba5cdd65a86c950a685fc99ec764736f6c63430008040033",
  "linkReferences": {},
  "deployedLinkReferences": {}
}